:020000040800F2
:1000000000400020550C000851030008530300086D
:1000100000000000000000000000000000000000E0
:100020000000000000000000000000005503000870
:1000300000000000000000005703000859030008FA
:10004000A50C0008A50C0008A50C0008A50C0008CC
:10005000A50C0008A50C0008A50C0008A50C0008BC
:10006000A50C0008A50C0008A50C0008A50C0008AC
:10007000A50C0008A50C0008A50C0008A50C00089C
:10008000A50C0008A50C0008A50C0008A50C00088C
:10009000A50C0008A50C0008A50C0008A50C00087C
:1000A000A50C0008A50C0008A50C0008A50C00086C
:1000B000A50C0008A50C0008A50C0008A50C00085C
:1000C00010B5064C2378002B07D1054B002B02D02E
:1000D000044800E000BF0123237010BD240000206D
:1000E00000000000000D0008044B10B5002B03D0E9
:1000F0000349044800E000BF10BDC04600000000F6
:1001000028000020000D0008002243088B4274D311
:1001100003098B425FD3030A8B4244D3030B8B4208
:1001200028D3030C8B420DD3FF22090212BA030C11
:100130008B4202D31212090265D0030B8B4219D3F2
:1001400000E0090AC30B8B4201D3CB03C01A524112
:10015000830B8B4201D38B03C01A5241430B8B425A
:1001600001D34B03C01A5241030B8B4201D30B0343
:10017000C01A5241C30A8B4201D3CB02C01A52416A
:10018000830A8B4201D38B02C01A5241430A8B422D
:1001900001D34B02C01A5241030A8B4201D30B0216
:1001A000C01A5241CDD2C3098B4201D3CB01C01A30
:1001B000524183098B4201D38B01C01A524143093A
:1001C0008B4201D34B01C01A524103098B4201D328
:1001D0000B01C01A5241C3088B4201D3CB00C01A95
:1001E000524183088B4201D38B00C01A524143080D
:1001F0008B4201D34B00C01A5241411A00D2014632
:10020000524110467047FFE701B5002000F006F8A4
:1002100002BDC0460029F7D076E770477047C04658
:1002200070B50D4B1D68440001210A00A240154322
:100230001D601D6801340E00A640B5431D605C685A
:1002400081408C435C609968324391439960D968DE
:100250009143D96070BDC04600080048054B5A69FB
:1002600001238340134202D0024A93627047014A3D
:100270009361FBE70008004810B592B030220021DE
:1002800006A800F035FD1022002101A800F030FD85
:1002900002230593013B08930F330993002405A81B
:1002A00000F076F80723019302940394049400214C
:1002B00001A800F059FB12B010BD000010B500F00D
:1002C0001DFCFFF7D9FF00F035F80D4A5169802376
:1002D0001B030B4353610620FFF7A2FF0720FFF724
:1002E0009FFF084B40229A6140329A62C82000F07A
:1002F00027FC0620FFF7B2FF0720FFF7AFFFF5E767
:100300000010024000080048024B01221A701878C1
:10031000C0B2704700000020024B01221A7018780A
:10032000C0B27047000000200020704700207047D6
:100330000120704710B50349034800F085FC034BCA
:10034000187010BD4C000020040000205000002058
:100350007047FEE77047704710B500F0DFFB10BD37
:1003600082B00A4B996901221143996199690A4047
:100370000092009ADA69802149050A43DA61DB6953
:100380000B400193019B02B07047C0460010024031
:1003900070B582B0041E00D17FE20368DB072BD565
:1003A000B34B5A680C231340042B1DD0B04B5A6832
:1003B0000C231340082B0ED06368012B41D0002B77
:1003C00056D1AB4B1A68AB490A401A601A68AA4961
:1003D0000A401A603BE0A64B5B68C0225202134001
:1003E000802252029342E7D1A14B1B689B0303D5A5
:1003F0006368002B00D153E223689B0777D59C4BA1
:100400005B680C221A4262D0994B5A680C23134045
:10041000082B53D0E368002B00D18AE0944A13687C
:1004200001210B43136000F085FB0500904B1B6816
:100430009B0775D400F07EFB401B0228F6D90320F1
:100440002CE28B4A116880235B020B4313606368C4
:10045000002B25D000F06EFB0500854B1B689B032D
:10046000CAD400F067FB401B6428F6D9032015E2CC
:10047000052B09D07E4B1A687E490A401A601A681B
:100480007D490A401A60E2E7794B19688022D2025E
:100490000A431A601968802252020A431A60D6E79A
:1004A00000F048FB0500724B1B689B03A4D500F0CD
:1004B00041FB401B6428F6D90320EFE16C4B5B68DD
:1004C000C02252021340802212029342A2D1684BF2
:1004D0001B689B0703D5E368012B00D0E2E1644968
:1004E0000B68F82293432269D20013430B60236800
:1004F0001B0744D5E369002B2ED05D4A536A0121C6
:100500000B43536200F016FB0500594B5B6A9B07D7
:1005100035D400F00FFB401B0228F6D90320BDE1C3
:1005200053490B68F82293432269D20013430B60AE
:10053000DDE74F4A136801218B43136000F0FAFA9C
:1005400005004B4B1B689B07D1D500F0F3FA401B0D
:100550000228F6D90320A1E1454A536A01218B43C1
:10056000536200F0E7FA0500414B5B6A9B0706D532
:1005700000F0E0FA401B0228F6D903208EE1236840
:100580005B0700D480E03A4BDB69DB001DD4384ABE
:10059000D169802040050143D161D36903400193B3
:1005A000019B0125354B1B68DB0510D5A368012B8A
:1005B00021D0002B36D12E4B1A6A01218A431A62B0
:1005C0001A6A03318A431A621AE00025EAE72B4AC5
:1005D000116880235B000B43136000F0ABFA060048
:1005E000264B1B68DB05E1D400F0A4FA801B6428CD
:1005F000F6D9032052E11E4A136A01210B4313620C
:10060000A368002B24D000F095FA0600184B1B6A53
:100610009B0737D400F08EFA801B194B9842F5D90E
:1006200003203BE1052B09D0114B1A6A01218A43B3
:100630001A621A6A03318A431A62E1E70C4B1A6A9A
:1006400004210A431A621A6A03390A431A62D7E775
:1006500000F070FA0600064B1B6A9B0712D500F0EB
:1006600069FA801B064B9842F5D9032016E1C04673
:1006700000100240FFFFFEFFFFFFFBFF0070004085
:1006800088130000012D39D02368DB0610D563697B
:10069000012B39D0053357D1894A536B04218B4341
:1006A0005363536BF4318B43A169C9000B4353630C
:1006B00023689B066ED5824B5A680C2313400C2B83
:1006C00060D07F4B5A680C231340082B53D0236A09
:1006D000002B7ED07A4A516B80235B020B4353631D
:1006E00000F028FA0500764B5B6BDB0352D400F078
:1006F00021FA401B0228F6D90320CFE0704AD369C3
:1007000070490B40D361BFE76D4B5A6B04210A431C
:100710005A635A6B03390A435A6300F00BFA050017
:10072000674B5B6B9B0706D400F004FA401B022862
:10073000F6D90320B2E062494B6BF8229343A269D9
:10074000D20013434B63B3E75D4B5A6B04210A435A
:100750005A635A6B03398A435A6300F0EBF9050078
:10076000574B5B6B9B07A3D500F0E4F9401B0228B5
:10077000F6D9032092E0524B5B68C022520213402C
:100780009342A4D14E4B5B6BDB0303D5236A012B51
:1007900000D089E0636A002B00D187E0484A5168A5
:1007A0000C220A40082A60D0022B25D0444A136844
:1007B00045490B40136000F0BDF90400404B1B6835
:1007C0009B0150D500F0B6F9001B0228F6D9032092
:1007D00064E03B4A536B3D490B40536300F0AAF978
:1007E0000500374B5B6BDB03D4D500F0A3F9401B4E
:1007F0000228F6D9032051E0314A136832490B40F0
:10080000136000F097F905002D4B1B689B0106D57E
:1008100000F090F9401B0228F6D903203EE0284B57
:10082000DA6A0F218A43216B0A43DA625A6828493F
:100830000A40E16AA06A01430A435A6019688022AB
:1008400052040A431A6000F075F904001C4B1B683F
:100850009B0106D400F06EF9001B0228F6D9032094
:100860001CE000201AE0002018E0012B20D0144BDF
:100870005A68D96AC0235B021340A06A834219D127
:100880000F230B40216B8B4216D1F0239B031A40A0
:10089000E36A9A4212D1002000E0012002B070BD4C
:1008A0000120FBE70120F9E70120F7E70020F5E749
:1008B0000120F3E70120F1E70120EFE70120EDE758
:1008C00000100240FFFFFFEFFFFFFFFEFFFFFEFFF4
:1008D000FF7FC2FF10B588B004AA1E4B13CB13C212
:1008E0001B6813606A461C4B13CB13C21B68136052
:1008F0001A4B5A680C231340082B04D00C2B26D11A
:10090000174808B010BD910C0F23194004A8445C8F
:100910001249C96A0B406946C95CC0235B021A4090
:1009200080235B029A4208D0C0235B029A4209D01E
:100930000C48FFF7E9FB6043E3E70A48FFF7E4FBF5
:100940006043DEE70648FFF7DFFB6043D9E7054871
:10095000D7E7C046180D00082C0D00080010024013
:10096000006CDC0200127A0070B504000D00002853
:1009700000D186E0474B1A68012313408B420AD20C
:1009800044490B68012293432B430B600B681A40C8
:10099000AA4200D077E023689A070ED55B0705D5F9
:1009A0003D4A5168E023DB000B4353603A4A5368E9
:1009B000F0218B43A1680B4353602368DB0735D5D7
:1009C0006368012B09D0022B24D0032B28D0324A94
:1009D0001268920705D4012052E02F4A1268920350
:1009E00053D52D494A680320824313434B6000F0DE
:1009F000A1F80600284B5B680C221A4063689B0034
:100A00009A4213D000F096F8801B244B9842F1D9FB
:100A1000032035E0204A12689201E2D401202FE041
:100A20001D4A526BD203DCD4012029E0194B1A680D
:100A300001231340AB4209D916490B6801229343A5
:100A40002B430B600B681A40AA4220D123685B0736
:100A500006D5114A536812490B40E1680B435360B5
:100A6000FFF738FF0C4B5A6812090F2313400D4A49
:100A7000D35CD8400C4B1860002000F017F8002021
:100A800070BD0120FCE70120FAE70120F8E7012012
:100A9000F6E7C04600200240001002408813000024
:100AA000FFF8FFFF400D00082000002010B50400F3
:100AB0000F4B1978FA208000FFF726FB01000D4B41
:100AC0001868FFF721FB00F07DF800280DD1032CFA
:100AD00001D901200AE0013000222100404200F04B
:100AE00041F8054B1C60002000E0012010BDC0460D
:100AF00018000020200000201C00002010B5064A2D
:100B0000136810210B4313600020FFF7CFFFFFF79E
:100B100027FC002010BDC04600200240034A116897
:100B2000034B1B785B1813607047C046B00400206D
:100B300018000020014B18687047C046B004002020
:100B400070B50400FFF7F6FF0500631C02D0044BEC
:100B50001B78E418FFF7EEFF401BA042FAD370BDEC
:100B60001800002070B5002811DB8308134EC03335
:100B70009B009D5903242040C000FF2214008440A4
:100B8000A54389010A4082402A439A5170BD0F2330
:100B90000340083B9B0806339B00094A9446634484
:100BA0005C6803221040C000FC3215008540AC4355
:100BB00089010A40824022435A60E7E700E100E0F1
:100BC00000ED00E0013880235B0498420FD2094A0F
:100BD00050600948036A1B021B0AC02109060B4327
:100BE00003620023936007331360002070470120E5
:100BF000FCE7C04610E000E000ED00E070470000B8
:100C000030B5104B5B7ADBB2012B01D9012030BD2E
:100C10000C4B5C7AE4B200251D555C7AA4001C19CB
:100C20006060587A181802725A7A501CC0B2587212
:100C300030320A703A234B700B3B8B70CD70002022
:100C4000E5E7C0464000002010B50022FFF7D8FFBE
:100C500010BD00000D4885460D480E490E4A002380
:100C600002E0D458C4500433C4188C42F9D30B4A60
:100C70000B4C002301E013600432A242FBD3FFF7C8
:100C8000BDFF00F011F8FFF719FBFEE70040002060
:100C90000000002024000020580D0008240000203F
:100CA000B4040020FEE7000070B500260C4D0D4C8A
:100CB000641BA410A64209D1002600F021F80A4DB9
:100CC0000A4C641BA410A64205D170BDB300EB58BA
:100CD00098470136EEE7B300EB5898470136F2E744
:100CE000500D0008500D0008500D0008540D00086C
:100CF00003008218934200D1704719700133F9E75D
:100D0000F8B5C046F8BC08BC9E467047F8B5C0466A
:080D1000F8BC08BC9E467047C8
:100D180002030405060708090A0B0C0D0E0F101034
:100D2800000000000102030405060708090A0B0C6D
:100D38000D0E0F1000000000000000000000000071
:080D480001020304060708097B
:040D5000E9000008AE
:040D5400C1000008D2
:100D5800010000000903000819030008290300081E
:100D68002D03000831030008010000000400000002
:040D780000127A00EB
:0400000508000C558E
:00000001FF
